:1000000000000320D501000051020000B59300005C
:1000100055020000570200005902000000000000D5
:1000200000000000000000000000000011040000BB
:100030005D0200000000000041040000CD2E000021
:10004000899000009190000099900000A19000001C
:10005000A9900000B1900000B9900000C19000008C
:10006000C9900000D1900000D9900000E1900000FC
:10007000E9900000F1900000F9900000019100006B
:1000800009910000119100001991000021910000D8
:100090002991000031910000399100004191000048
:1000A00049910000519100005991000061910000B8
:1000B0006991000071910000799100008191000028
:1000C000899100009191000099910000A191000098
:1000D000A9910000B1910000B9910000B91D000084
:1000E000C1910000C9910000D1910000D991000098
:1000F000E1910000E9910000F1910000F991000008
:100100000192000009920000119200001992000073
:1001100021920000299200003192000039920000E3
:100120004192000049920000519200005992000053
:1001300061920000699200007192000079920000C3
:100140008192000089920000919200009992000033
:10015000A1920000A9920000B1920000B9920000A3
:10016000C1920000C9920000D1920000D992000013
:10017000E1920000E9920000F1920000F992000083
:1001800001930000099300001193000019930000EF
:100190002193000029930000E0C50000000000202A
:1001A00098000000E0C500000000FF1F00000000F4
:1001B000E0C50000000000140000000098000020CE
:1001C000902C00000000FF1F000000000000001441
:1001D0000000000072B607F031FA0E4B07E003F1A1
:1001E0000C049A685968186800F01AF823460A4AFD
:1001F0009342F4D306E01C46596854F8080B00F00B
:100200001EF82346054A9342F5D362B60AF0C0FBB6
:10021000FEE700BF98010000BC010000D40100000F
:10022000002393420AD210B450F8044B41F8044B17
:1002300004339342F8D35DF8044B704770470023B2
:1002400003E0002240F8042B04338B42F9D37047BB
:10025000FEE7FEE7FEE7FEE7FEE7FEE7FEE7FEE776
:10026000FEE7FEE7FFFFFFFFFFFFFFFFFFFFFFFFD0
:10027000FFFFFFFFFFFFFFFFFFFFFFFFFFFFFFFF8E
:10028000FFFFFFFFFFFFFFFFFFFFFFFFFFFFFFFF7E
:10029000FFFFFFFFFFFFFFFFFFFFFFFFFFFFFFFF6E
:1002A000FFFFFFFFFFFFFFFFFFFFFFFFFFFFFFFF5E
:1002B000FFFFFFFFFFFFFFFFFFFFFFFFFFFFFFFF4E
:1002C000FFFFFFFFFFFFFFFFFFFFFFFFFFFFFFFF3E
:1002D000FFFFFFFFFFFFFFFFFFFFFFFFFFFFFFFF2E
:1002E000FFFFFFFFFFFFFFFFFFFFFFFFFFFFFFFF1E
:1002F000FFFFFFFFFFFFFFFFFFFFFFFFFFFFFFFF0E
:10030000FFFFFFFFFFFFFFFFFFFFFFFFFFFFFFFFFD
:10031000FFFFFFFFFFFFFFFFFFFFFFFFFFFFFFFFED
:10032000FFFFFFFFFFFFFFFFFFFFFFFFFFFFFFFFDD
:10033000FFFFFFFFFFFFFFFFFFFFFFFFFFFFFFFFCD
:10034000FFFFFFFFFFFFFFFFFFFFFFFFFFFFFFFFBD
:10035000FFFFFFFFFFFFFFFFFFFFFFFFFFFFFFFFAD
:10036000FFFFFFFFFFFFFFFFFFFFFFFFFFFFFFFF9D
:10037000FFFFFFFFFFFFFFFFFFFFFFFFFFFFFFFF8D
:10038000FFFFFFFFFFFFFFFFFFFFFFFFFFFFFFFF7D
:10039000FFFFFFFFFFFFFFFFFFFFFFFFFFFFFFFF6D
:1003A000FFFFFFFFFFFFFFFFFFFFFFFFFFFFFFFF5D
:1003B000FFFFFFFFFFFFFFFFFFFFFFFFFFFFFFFF4D
:1003C000FFFFFFFFFFFFFFFFFFFFFFFFFFFFFFFF3D
:1003D000FFFFFFFFFFFFFFFFFFFFFFFFFFFFFFFF2D
:1003E000FFFFFFFFFFFFFFFFFFFFFFFFFFFFFFFF1D
:1003F000FFFFFFFFFFFFFFFFFFFFFFFFFFFFFFFF0D
:10040000FFFFFFFFFFFFFFFFFFFFFFFFFEFFFFFFFD
:10041000074B19680868B0E8F04F80F30988BFF30C
:100420006F8F4FF0000080F311887047AFF30080AA
:10043000702A002000BF00BFFFFFFFFFFFFFFFFF8C
:10044000EFF30980BFF36F8F154B1A681EF0100F82
:1004500008BF20ED108A20E9F04F10602DE9090057
:100460004FF0200080F31188BFF34F8FBFF36F8FE1
:1004700003F060FB4FF0000080F3118809BC19689D
:100480000868B0E8F04F1EF0100F08BFB0EC108AFB
:1004900080F30988BFF36F8F704700BFAFF3008010
:1004A000702A002000BF00BF80B586B000AF786022
:1004B0000023FB750023BB7500237B7504220021FC
:1004C0009D480AF06FFA0023FB600AE09B4AFB6834
:1004D00002339B0013444FF000021A60FB680133A3
:1004E000FB60FB68062BF1D9944B4FF000025A6277
:1004F000924B4FF000029A62914B4FF000021A604B
:100500008F4B4FF000025A608D4B4FF000029A6003
:100510008C4B1B78DBB2002BFAD08A4B00221A706E
:10052000BB7D002B0BD10121874808F01AFF022167
:10053000854808F024FF0421834808F020FFBB7D94
:10054000012B0BD10121804808F019FF02217E48C0
:1005500008F007FF04217C4808F011FFBB7D022B47
:100560000BD10121784808F00AFF0221764808F0F3
:1005700006FF0421744808F0F4FEBB7D734A12683C
:1005800073499B000B441A60BB7D714A9B00134466
:1005900093ED007A6F4BD3ED007A27EE277ABB7D7F
:1005A000664A02339B001344D3ED006A6A4BD3EDD5
:1005B000007A66EEA77ABB7D77EE277A5F4A023330
:1005C0009B001344C3ED007AFB7D0133FB75BB7DBB
:1005D0000133BB75FB7D022B01D90023FB75BB7D6D
:1005E000022B40F29B80554B93ED027A534BD3ED97
:1005F000047A37EE677AF0EE006AC7EE267A4F4B40
:10060000C3ED057A4D4B93ED027A4C4BD3ED037A53
:1006100037EE277AF0EE006AC7EE267A474BC3ED35
:10062000067A464B93ED037A444BD3ED047A37EECA
:10063000277AF0EE006AC7EE267A404BC3ED077AC0
:100640000023BB753D4B93ED027A3C4BD3ED037A0F
:1006500037EE277A394BD3ED047A77EE277A374B8A
:10066000C3ED097A354B93ED047A344BD3ED057A1B
:1006700037EE277A314BD3ED067A77EE277A2F4B78
:10068000C3ED0A7A2D4BD3ED097AB0EE670A01F07B
:100690009FFE324B186800230122284902F010FD0A
:1006A0000346012B03D07B7D01337B7536E00023AD
:1006B0007B752B4808F071FE03467B817A897B8A23
:1006C0009A4215D97A897B8AD31A3B813B8918468D
:1006D0000AF0FCFB16A3D3E9002307F0B7FE02469D
:1006E0000B461046194608F02BF90346134A53608F
:1006F0007B897B821B4BB3F90030012B07D1202172
:10070000114808F02EFE174B00221A8006E0202127
:100710000D4808F034FE134B01221A80FB7DDB00EC
:10072000114A13441A460021104804F01FFAEFE65C
:1007300007F0164850FC583FE8010020E001002077
:10074000C40100209000002080F00F40A80100208C
:10075000AC01002050000020540000200C010020BB
:10076000008003401C2D00207000002000B00340DA
:1007700080B58AB000AF786087ED000A052387F85E
:100780002730D7ED007AF5EEC07AF1EE10FA01D5F8
:10079000012300E00023FB769FED7D1B9FED7E0B88
:1007A00000F002F953EC102B1046194608F0C8F877
:1007B00003467B61FB7E002B05D0D7ED007AF1EE7E
:1007C000677AC7ED007AD7ED007A9FED757AF4EE7F
:1007D000C77AF1EE10FA01DD0023D4E0D7ED007AFC
:1007E000FCEEE77A17EE903A3B623B6A07EE903AEE
:1007F000F8EE677A97ED007A77EE677A97ED057AEB
:1008000067EE277AC7ED047AD7ED047AFCEEE77A33
:1008100017EE903AFB61002387F826301DE0F96956
:10082000604BA3FB0123DA0813469B0013445B00D3
:10083000CA1AD3B23033BB7397F826307A681344A0
:10084000BA7B1A70FB69574AA2FB0323DB08FB61E2
:1008500097F82630013387F8263097F82630042B96
:10086000DDD997F827305A1C87F827201A467B686D
:1008700013442E221A7097F827300E2B01D900232B
:1008800081E03B6A002B32D197F827305A1C87F859
:1008900027201A467B68134430221A7097F82730B5
:1008A0000E2B24D900236EE0396A3E4BA3FB0123B3
:1008B000DA0813469B0013445B00CA1AD3B23033E4
:1008C000BB7397F827305A1C87F827201A467B6895
:1008D0001344BA7B1A7097F827300E2B01D90023E6
:1008E00051E03B6A2F4AA2FB0323DB083B623B6AD1
:1008F000002BD9D1FB7E002B0FD097F827305A1C44
:1009000087F827201A467B6813442D221A7097F81F
:1009100027300E2B01D9002335E0002387F826303D
:1009200022E097F826307A6813441B78FB7397F817
:10093000272097F82630D31A013B7A681A4497F893
:10094000263079680B4412781A7097F8272097F8A8
:100950002630D31A013B7A681344FA7B1A7097F851
:100960002630013387F8263097F827305B08DBB252
:1009700097F826209A42D4D397F827307A68134400
:1009800000221A70012318462837BD4680BD00BFDB
:10099000000000000000144000000000000024409F
:1009A0000000804FCDCCCCCC2DE9F04F2DED068B47
:1009B0005BEC11AB85B0404B11EE100A002259469A
:1009C00055EC104B0AF08BFA28BB0022002320467E
:1009D00029460AF0F2FA002861D0002200232046BE
:1009E00029460AF07CFA0022E0B10023504659461D
:1009F0000AF0E3FA002800F0A281304B21221A60AD
:100A000050460022002359460AF069FA002840F0B7
:100A100054822B4D002445EC104B05B0BDEC068BE9
:100A2000BDE8F08F274B504659460AF070FA98B946
:100A30001DA3D3E90023504659460AF093FA58B94A
:100A4000594650460AF0FFF906460AF03FFA524668
:100A50005B460AF044FA18B9184B21221A60D8E70D
:100A600005F100431D4606F00103019300224FF0FB
:100A70008043504659460AF032FA28B30CA3D3E912
:100A80000023204629460AF042FAE8B122462B46C6
:100A90002046294607F0DAFC04460D46BBE70190E4
:100AA000E4E700BFAFF300800000C0FFFFFFDF41BD
:100AB000408CB5781DAF15440000F03F0C2D002090
:100AC0000000F0FF0000E0C145EC104B03A800F06F
:100AD0006BFF57EC106B10EE100AACA3D3E90023A8
:100AE00039460AF06AFA002814BF08240024A04DF1
:100AF00004F1040805EBC801D1E9000132463B4688
:100B00000AF086FA002818BF444604F1020805EBF3
:100B1000C801D1E9000132463B460AF079FA0028C3
:100B200018BF444605EBC405D5E902893046424664
:100B30004B46394607F0A4FD8E4B621003EBC2030F
:100B4000D3E9002307F09CFD8B4B41EC180B0022EE
:100B50003046394607F07AFC874B06460F4600229E
:100B60004046494607F072FC02460B46304639467D
:100B700007F05CFE02460B4651EC180B07F0E4FC54
:100B800002460B468046894607F060FC6EA3D3E917
:100B9000002306460F4607F059FC6DA3D3E9002356
:100BA00007F044FE32463B4607F050FC6AA3D3E907
:100BB000002307F03BFE32463B4607F047FC68A3A4
:100BC000D3E9002307F032FE32463B4607F03EFCF5
:100BD00042464B4607F03AFC63A3D3E9002306469E
:100BE0000F4607F033FC41EC1A0B0398C4EB0010DE
:100BF00001380AF06BF9614B002207F027FC604BCB
:100C000041EC180B00225046594607F01FFC0AF031
:100C10001AF90AF05BF9594B002207F017FC52A3AE
:100C2000D3E9002341EC190B4046494607F00EFC7E
:100C3000324604460D463B4651EC1A0B07F0F6FDD2
:100C400002460B462046294607F0F0FD42464B4639
:100C500007F0ECFD52465B4607F0F8FB53EC192B0E
:100C600004460D465046594607F00AFD53EC182B32
:100C700007F0ECFB02460B462046294607F0D6FD5E
:100C80003F4B002204460D4607F0E0FB0AF0DBF87C
:100C90000AF01CF9394B002207F0D8FB06460F4634
:100CA00002460B462046294607F0EAFC53EC192B76
:100CB00004460D4651EC180B07F0C8FB32463B4684
:100CC00007F0B4FD2E4B00228046894607F0BEFB9C
:100CD0000AF0B9F80AF0FAF8284B002207F0B6FB40
:100CE000064602460B460F464046494607F0C8FCFA
:100CF00022462B4607F09AFD214B0022804689466A
:100D000007F0A4FB0AF09FF80AF0E0F81B4B002262
:100D100007F09CFB02460B4604460D46304639461A
:100D200007F084FD164B002207F090FB0AF08BF8C9
:100D3000144B984206462DDA134B22221A600024E7
:100D4000002568E6AFF3008028FC4ADBFD783C3FD5
:100D5000AC8D272E2449623F0E089E999999893FB0
:100D60004D5555555555B53FF80BAE941D55DC3FC7
:100D700008B1000090B100000000E03F0000B03F6B
:100D80000000304020C0FFFF0C2D0020CD3B7F66CF
:100D90009EA0E63F22462B464046494607F070FC9F
:100DA0000022002304460D460AF0DCF840B120463C
:100DB0002946514B002207F063FC013604460D46DC
:100DC000002EB5BF06F10F084FEA26184FEA281883
:100DD00008F101084948C6EB081639A3D3E90023F6
:100DE00000EBC6062946204607F030FB36A3D3E9C0
:100DF000002307F01BFD22462B4607F027FB34A3F8
:100E0000D3E9002307F012FD22462B4607F01EFB14
:100E100031A3D3E9002307F009FD22462B4607F052
:100E200015FB2FA3D3E9002307F000FD22462B4634
:100E300007F00CFB2CA3D3E9002307F0F7FCD6E95D
:100E4000006722462B4607F001FB29A3D3E90023C4
:100E500007F0ECFC22462B4607F0F8FA32463B46F8
:100E600007F0F4FA02460B463046394607F0DEFC3E
:100E700041EC100B03A800F097FD03984044B0F537
:100E8000806F09DD1E4B22221A60019B002B7FF42C
:100E9000C0AD1C4D0024BEE56FF47F739842FFF691
:100EA0004BAF00F0B5FD019B55EC104B002B3FF410
:100EB000B2AD05F100431D46ADE5134D0024AAE592
:100EC00080CC92E3DD4EEF3E744C38E07A2F243F25
:100ED0009FCDD7187ED8553F981D136EABB2833F78
:100EE0006D0203D7086BAC3FCEC482FFBDBFCE3FBF
:100EF000EF39FAFE422EE63F0000B03F08B1000095
:100F00000C2D00200000F07F0000F03FFFFFFFFFEE
:100F10002DE9F04F2DED068B00239BB0CDE9083372
:100F20009FEDBF9B04460F928B461BF8015B002D83
:100F30004BD0252DC24E4ED07219636892F8802096
:100F4000D10703F1FF3323D55D461BF8013B334442
:100F500093F88030DA07F7D46368013B002B6360B5
:100F600012DB23685A1C22601878331893F88030FB
:100F7000DB0705D4214609F0B2FEAB465946D3E75C
:100F8000089B01330893E7E7204607F05BF9ECE79D
:100F9000002B636009DB23685A1C22601E78AE4276
:100FA00008D1089B01330893E8E7204607F04AF987
:100FB0000646F4E73046214609F091FE013604D199
:100FC000099B13B94FF0FF33099309981BB0BDEC8F
:100FD000068BBDE8F08F4B789A482A2B06BF01F1AB
:100FE000020B4FF0010A4FF0000A5A464FF000087A
:100FF0000A251BF8013BF11891F880108F0600F1CB
:10100000F8801AF0080F08BF6FF000486C2B40F012
:10101000FD809BF800304AF0020A02F1020B782BA7
:10102000D3DC572B00F31881252B00F05F81242B94
:10103000CBDD23F00203452BC7D14FF0FF376368A8
:10104000013B002BB946636007F10107C0F2A381A1
:1010500023685A1C22601D78731993F88030D807D2
:10106000EDD4691CACD0B8F1000F00F0A1812B2D9C
:1010700000F096812D2D40F09B814AF4007303937C
:101080006368013B002B09F102076360C0F28B81AA
:1010900023685A1C22601D7808F1FF389FED628B8F
:1010A00008F1FF36284659EC198B3D460027049776
:1010B000731C40F08081214609F011FEB0EE480A11
:1010C000F0EE680A049A0A235343032293FBF2F3D7
:1010D0000E930E9A049B9E1A304600F035FC38465B
:1010E0008DED0C0B09F0F2FE41EC100B304600F0D8
:1010F0002BFC049BB0EE40AAF0EE60AA002B80F21D
:101100001D829FED4B7B0FF23019D9E90089B0EEBB
:10111000478AF0EE678A5B4204939FED437B8DED37
:101120000A7B049BDA073BD553EC182B4046494613
:1011300007F07CFB06460F4602460B46DDE90C0134
:1011400007F084F9DDE90A23CDE90C013046394680
:1011500007F07CF953EC1A2B06460F4651EC180B9E
:1011600007F074F932463B4607F060FB53EC1A2B4C
:1011700006460F464046494607F068F900220B46EE
:1011800043EC1A2B53EC1A2B07F07AFA3B46324603
:1011900007F04CFB049B012BCDE90A0100F0D38141
:1011A00042464B464046494607F040FB53EC182B5D
:1011B00007F03CFB02460B4651EC180B07F046F9D2
:1011C00042464B4606460F464046494607F03EF922
:1011D0004FF0000842460B46894607F051FA3B465D
:1011E000324607F023FB049B5B1041EC180B049381
:1011F00097E780453FF7E9AE05FB0838B8F13008BE
:101200003FF5E3AE4AF0080A5A46F2E64C2B1BD1F2
:101210009BF800304AF0120AFFE600BFAFF30080EF
:101220009A9999999999B93F00000000000000002F
:10123000333333333333733E000000009999C93F91
:101240005FC40000CCCCCC0C682B7FF4E8AE9BF8DC
:1012500000304AF0040AE0E6583B202B3FF6B5AEDA
:1012600001A252F823F000BF8B170000CB0F000043
:10127000CB0F000093170000CB0F0000CB0F000036
:10128000CB0F0000CB0F0000CB0F0000CB0F0000F6
:10129000CB0F00001B130000811300003B10000067
:1012A0003B1000003B100000CB0F00007516000043
:1012B000CB0F0000CB0F0000CB0F0000CB0F0000C6
:1012C000B5160000CB160000D3160000CB0F0000AF
:1012D000CB0F0000DF160000CB0F000081170000CD
:1012E000CB0F0000CB0F00008B1700006368013BA1
:1012F000002B63600CDB23685A1C22601D78252DAF
:101300003FF44FAE2146284609F0E9FC013556E688
:10131000204606F097FF0546F1E71AF0080F08BFD0
:101320004FF001081AF0010701BF0F9B1A1D0F9221
:101330001D6818BF0025B8F1000F3FF446AE089BAA
:101340009844089B013308936368013B002B63605A
:1013500010DB23685A1C226018780FB905F8010BBE
:10136000089B4345EDD1002F7FF408AE099B013364
:10137000099303E6204606F065FF461CEDD11FE603
:10138000CDF800800A234AF020020FA9204606F07B
:1013900085FE054609E1204606F054FF05465BE65A
:1013A000CDF80CA06CE6204606F04CFF054673E62F
:1013B000CDF80CA072E62E2814D1039B5A0611D446
:1013C00043F040030A936368013B002B05F10105DC
:1013D000636041DB23685A1C226018780A9B0393E0
:1013E000013E65E6AC4B034493F8803013F0200FC8
:1013F000039B35D043F480730A93039B03F04003AF
:101400000393A64B9F42A0F1300009DC0A2303FBA3
:101410000707039B002BD6D0049B013B0493D2E724
:1014200009F054FD42464B4607F010F802460B46C1
:1014300051EC180B07F0FAF9994B41EC180B00220C
:101440004046494607F080F8039B80468946002BBA
:10145000B9D1049B0133E1E7204606F0F3FEBDE776
:1014600020F02002452A03F480737FF424AE002B81
:101470003FF421AE039B23F4C07303936368013BE5
:10148000002B636020DB23685A1C226018782B280D
:1014900022D02D281CD001357F4B4FF000082E4460
:1014A0004FF00A09721B002A04DD1A1892F88020F6
:1014B000910622D4039B13F0800F049B14BFA3EB6F
:1014C000080343440493F6E5204606F0BBFEDEE73E
:1014D000039B43F0800303936368013B002B05F1FA
:1014E0000205636005DB23685A1C22601878013E00
:1014F000D2E7204606F0A6FEF9E7039A42F480728E
:1015000003926268013A3038002A09FB080805F1A5
:101510000105626004DB2268511C21601078C1E77C
:10152000204606F08FFE5C4BBCE7DFF88491B0EEFE
:10153000478AF0EE678A4FF00008EEE59FED507B9A
:10154000F3D18DED0A7BDDE90A23DDE90C0107F01B
:101550006DF953EC1A2B07F069F941EC100B11A847
:1015600000F0BEF9119E0E9B3344B3F5806F1E460A
:10157000119321DD039B9B051BD49FED437B494BBE
:101580008DED067B22221A60039BDE057FF51DADE3
:10159000980703F0010639D53EB90F9B1A1D0F922B
:1015A0009DED067B1B6883ED007B002D80F2C680DD
:1015B000ACE69FED377BE2E76FF47F739E4212DA71
:1015C00051EC100B002200238DED040B09F087FC79
:1015D0009DED040B38B99FED2A7B324B22228DED15
:1015E000067B1A60D0E7039B9F05304609D500F0C3
:1015F000ABF953EC102B03F100438DED060A079372
:10160000C2E700F0A1F98DED060BBDE79DED060BDD
:1016100012A800F065F9129B7E33002B129312DCA6
:10162000DDE906010022002309F059FCE8B91D4B51
:1016300022221A600020002EB7D10F9B1A1D0F9294
:101640001B681860B1E7FE2B0FDDDDE90601002203
:10165000002309F0DDFC144A144B002808BF134690
:10166000104A186822211160E5E7DDE9060107F05C
:1016700067F9E0E7CDF80080002384E6AFF300804F
:101680000000000000000000000000000000F07FEB
:10169000000000000000F0FF5FC400009F86010012
:1016A000000024400C2D0020880000208C00002029
:1016B000000014400F9B1A1D0F921B68089A1AF025
:1016C000040F14BF1A801A6058E4CDF80080082374
:1016D00059E6CDF8008010232AF0060255E64FF0B7
:1016E000FF356368013B002B05F1010563602EDBCC
:1016F00023685A1C22601878331893F8807017F00A
:101700000107EED1411C3FF45BAC1AF0010901BFA7
:101710000F9B1A1D0F921F68A844454506D0421C16
:1017200004D0331893F88030DB0714D5214609F034
:10173000D6FAB9F1000F01D187F800901AF0010F25
:1017400002BF099B01330993089B2B442BE42046DD
:1017500006F078FDD0E7B9F1000F01D107F8010BD1
:101760006368013B002B05F10105636004DB23681E
:101770005A1C22601878D0E7204606F063FDCCE7BB
:10178000CDF800800A235246FFE5CDF800801023F3
:10179000F9E59BF800300022CDE91222CDE91422B0
:1017A000CDE91622CDE918225E2B0DBF9BF8013042
:1017B0000BF1010B00210BF1020B08BF01210125E8
:1017C000002B3FF402AC5A111AA800EB820203F07E
:1017D0001F0352F8200C05FA03F318431BF8013BD2
:1017E00042F8200C5D2BEBD179BB1AF0010636D004
:1017F00000276368013B002B636035DB23685A1CBC
:1018000022601D7828460025A84516D0421C14D019
:1018100000280346B8BF00F11F031AAA5B1102EBB0
:101820008303414253F8203C01F01F0100F01F02E6
:1018300058BF4A421341DB071ED4214609F04FFA34
:10184000002E7FF4B2AE3E70AFE612A908220B68FC
:10185000013A6FEA030341F8043BF8D1C5E70F9B57
:101860001A1D0F921F68C4E7204606F0EBFC411CCE
:101870000546C7D1FFF7A4BB0EB907F8010B636893
:10188000013B002B05F10105636004DB23685A1C52
:1018900022601878B8E7204606F0D4FCB4E700BF11
:1018A00030B585B00C4601AB0B4902AA054609F0DC
:1018B000B4F9002804DC04B125609FED050B05E0B8
:1018C00014B10198054425609DED020B05B030BDB3
:1018D000000000000000000059C40000FFFFFFFFEF
:1018E000F8B555EC104B0646002210EE100A002306
:1018F000294609F0F4FA20B19FED110B0023336063
:10190000F8BDC5F30A5122462B46A1F2FE3079B943
:10191000C5F31301E70F01F4002547EA4101C1F3C4
:10192000130164000DB90138F4E761F31303224693
:1019300040F2FE3161F31E5343EC102B3060DFE7C1
:10194000000000000000000070B555EC104B06468A
:10195000002210EE100A0023294609F0C0FA10B147
:101960009FED0B0B70BDC5F30A51881940F2FE7153
:10197000884205DD0A4B22229FED070B1A60F1E732
:101980000028EDDD60F31E5545EC104BEAE700BF83
:101990000000000000000000000000000000F07FD8
:1019A0000C2D0020FFFFFFFFF8B555EC104B06464D
:1019B000002210EE100A0023294609F090FA20B107
:1019C0009FED110B00233360F8BDC5F30A51224689
:1019D0002B46A1F2FE3079B9C5F31301E70F01F4EC
:1019E000002547EA4101C1F3130164000DB9013834
:1019F000F4E761F31303224640F2FE3161F31E5314
:101A000043EC102B3060DFE7000000000000000016
:101A100070B555EC104B0646002210EE100A00235C
:101A2000294609F05CFA10B19FED0B0B70BDC5F3B0
:101A30000A51881940F2FE71884205DD0A4B2222C4
:101A40009FED070B1A60F1E70028EDDD60F31E55EE
:101A500045EC104BEAE700BF00000000000000006A
:101A6000000000000000F07F0C2D002080B584B045
:101A700000AF786039607B68002BFCD03B68002B9E
:101A800001D1002313E00C4B1B68002B01D1002374
:101A90000DE03A687968094808F081FE0346FB8149
:101AA000FB89002B01D13B6801E04FF0FF33184662
:101AB0001037BD4680BD00BFB8000020B000002038
:101AC00080B58EB000AFB9607B600346FB731346F0
:101AD000BB730023FB867B687B61BB68BB61002313
:101AE0003B7700237B770123BB770123FB77002320
:101AF00087F82030002387F82130FB7B87F82230DD
:101B0000BB7B87F82C3048F64173FB85BB7B012BF0
:101B100003D107F114033B6317E0BB7B022B03D116
:101B200043F22153FB8610E0BB7B032B03D143F22E
:101B30002153FB8609E0BB7B042B03D143F22153E5
:101B4000FB8602E043F22153FB86FB8E43F22152D7
:101B5000934230D020220021194808F023FF184B6F
:101B6000184A1A60164B1B6807F1240211461846E2
:101B700008F08DFD0346FB86FB8E002BFCD1124B3B
:101B80001B780F4B1B681149184608F0B0FD03463F
:101B9000FB86FB8E002BFCD1094B1B680C491846B9
:101BA00008F0CDFD0346FB86FB8E002BFCD1044BD9
:101BB0001B68084A1360FB8E18463837BD4680BD47
:101BC000980000209C0000201E2D0020B000002066
:101BD000B4000020B800002080B5A4B000AF786049
:101BE00039600023C7F888300023C7F88C30002301
:101BF000BB6007F10C037C220021184608F0D2FEDE
:101C00000E4B1B68002B12D007F108020C4B3968F1
:101C1000786807F0E3F8C7F88800D7F8882007F15C
:101C2000080311461846FFF721FFC7F88C00D7F8C4
:101C30008C3018469037BD4680BD00BFB8000020EC
:101C4000D189000080B483B000AF0346FB7197F9DF
:101C50000730002B0BDBFB7903F01F02074997F9D4
:101C600007305B09012000FA02F241F8232000BF8F
:101C70000C37BD465DF8047B704700BF00E100E013
:101C800080B582B000AF786039603B68012B02D923
:101C9000054806F03FF87B683A68043253F8223072
:101CA00018460837BD4680BDD0B1000080B582B06F
:101CB00000AF786039603B680F2B02D9094806F005
:101CC00029F87A683B6813441B78DBB263F07F0322
:101CD000D9B27A683B6813440A461A7000BF0837C5
:101CE000BD4680BD58B2000080B584B000AFF8603A
:101CF000B9607A60BB680F2B02D90D4806F00AF86C
:101D0000FA68BB6813441B78DBB223F03F03DAB2F6
:101D10007B68DBB203F03F03DBB21343D9B2FA684E
:101D2000BB6813440A461A7000BF1037BD4680BD19
:101D3000D0B2000080B485B000AFF860B9607A60BE
:101D40003B607B6840F2EA32934205D10B4B0022A4
:101D50001A700B4B00221A707B6840F2EB329342F0
:101D600005D1084B00221A70074B00221A7000BFE1
:101D70001437BD465DF8047B704700BF1F2D00205F
:101D8000202D002091000020212D002080B582B060
:101D900000AF7860786808F010F80346002B04D193
:101DA000044B1B680133034A136000BF0837BD466C
:101DB00080BD00BF4C01002080B584B000AF3B4621
:101DC00000221A605A600023FB600021234802F0C1
:101DD00001FFB860BB68802B05D100211F48FFF7C9
:101DE0004FFF03463B603B681AB21D4B1A801C4BE9
:101DF0001B881BB207EE903AF8EEE77A17EE900ACE
:101E000006F0CAFD4FF00002164B06F01FFB02461B
:101E10000B461046194606F093FD0346124A13601E
:101E2000124B01221A70124B1B680133104A1360C7
:101E3000FB68002B07D00F4B4FF080521A60BFF3A6
:101E40004F8FBFF36F8FBFF34F8F00BFBFF34F8F25
:101E500000BF00BF1037BD4680BD00BF00B00340CB
:101E6000182D00200000BA3FA8010020900000209B
:101E70001401002004ED00E090B583B002AF00F043
:101E800065FB00222C21642007F05EFB0346334AE9
:101E90001360324B1B68002B06D0304B1B68304957
:101EA000184601F0F9FB02E02E4806F0C4FD0120BF
:101EB00007F0E6FB03462C4A13602C4806F0BBFDF6
:101EC000002301930123009300234FF480722849DB
:101ED000284807F016FE0346012B03D0264806F0DB
:101EE000AAFDFEE700230193012300930023DA22D9
:101EF0002249234807F005FE0346012B03D01E4864
:101F000006F099FDFEE700230193012300930023CF
:101F1000DA221C491C4807F0F4FD0346012B03D0CC
:101F2000154806F088FDFEE7184B009300230122B8
:101F30002821174807F0D3FE0346164A1360154BB5
:101F40001C6801F03DFD024600230093002301219F
:101F5000204602F06FFA01F037FCFEE70C0100208A
:101F60004CB3000058B300000801002078B3000013
:101F700094B30000991F0000A0B30000BCB30000A0
:101F800075230000CCB30000A90400008D1D0000E3
:101F9000DCB300001001002080B596B000AF78607F
:101FA0004FF000037B65AF4B1B78DBB283F001037E
:101FB000DBB2002B00F07E81AB4B1B6807F1080100
:101FC0000322184601F07AF90346012B03D0A748F3
:101FD00006F031FD6EE1A44B1B68184607F012FCB9
:101FE00003461A46A24B1A60D7ED157AB7EE007A6F
:101FF00077EE877AC7ED157A9E4B93ED027A9E4B6A
:10200000D3ED007A77EE677AF1EE677AC7ED047A5E
:10201000984B93ED037A984BD3ED017A77EE677A7C
:10202000C7ED057A934B93ED047A934BD3ED027A87
:1020300077EE677AF1EE677AC7ED067A97ED047A64
:10204000D7ED067A37EE677AF0EE006AC7EE267AA9
:10205000C7ED077A97ED047AD7ED057A37EE277A40
:10206000F0EE006AC7EE267AC7ED087A97ED057A9A
:10207000D7ED067A37EE277AF0EE006AC7EE267AB9
:10208000C7ED097AD7ED047AB0EE670A7B48FEF710
:102090006FFB03461A467A4B1A7000233B650BE030
:1020A000764A3B6D13441978764A3B6D13440A46D1
:1020B0001A703B6D01333B653B6D062BF0DD714BB8
:1020C0002C22DA71D7ED057AB0EE670A6B48FEF77D
:1020D0004FFB03461A466A4B1A700823FB640BE059
:1020E000FB6C083B654AD15C664AFB6C13440A46AC
:1020F0001A70FB6C0133FB64FB6C0E2BF0DD614B43
:102100002C22DA73D7ED067AB0EE670A5B48FEF749
:102110002FFB03461A465A4B1A701023BB640BE080
:10212000BB6C103B554AD15C564ABB6C13440A4603
:102130001A70BB6C0133BB64BB6C162BF0DD514BCA
:102140002C22DA75D7ED077AB0EE670A4B48FEF716
:102150000FFB03461A464A4B1A7018237B640BE0A8
:102160007B6C183B454AD15C464A7B6C13440A465B
:102170001A707B6C01337B647B6C1E2BF0DD414B52
:102180002C22DA77D7ED087AB0EE670A3B48FEF7E3
:10219000EFFA03461A463A4B1A7020233B640BE0D1
:1021A0003B6C203B354AD15C364A3B6C13440A46B3
:1021B0001A703B6C01333B643B6C262BF0DD314BDA
:1021C0002C2283F82720D7ED097AB0EE670A2B4836
:1021D000FEF7CEFA03461A46294B1A702823FB63F2
:1021E0000BE0FB6B283B254AD15C264AFB6B134472
:1021F0000A461A70FB6B0133FB63FB6B2E2BF0DD81
:10220000204B2C2283F82F20D7ED037AB0EE670AFB
:102210001A48FEF7ADFA03461A46194B1A703023D6
:10222000BB630BE0BB6B303B144AD15C154ABB6B04
:1022300013440A461A70BB6B0133BB63BB6B362B6E
:10224000F0DD104B2C2283F8372097ED150A0B4850
:10225000FEF78EFA03461A46094B1A7038237B6341
:102260001EE000BF1F2D00200C010020E8B300007D
:10227000DC010020E0010020C40100205801002002
:10228000232D0020680100207B6B383B2C4AD15C59
:102290002C4A7B6B13440A461A707B6B01337B63B9
:1022A0007B6B3E2BF0DD274B0A2283F83F20264B29
:1022B00001221A70254B1B78DBB283F00103DBB2DD
:1022C000002B0CD0224B1B78DBB2002B07D01F4B0E
:1022D00001221A701F4A2049204805F0EDF8204BD2
:1022E0001B78DBB283F00103DBB2002B0CD0164B62
:1022F0001B78DBB2002B07D0194B01221A70194A48
:102300001549164805F064F8114B1B78DBB283F0D1
:102310000103DBB2002B09D005221349134808F052
:102320003FFB00F0B5F90A4B01221A70104B4FF039
:1023300080521A60BFF34F8FBFF36F8F33E600BF39
:1023400058010020680100201F2D0020212D0020B1
:102350009100002044010020BC00002000A00640A5
:10236000202D00203C0100201801002050010020F9
:1023700004ED00E080B582B000AF7860114B1B68BF
:102380000021184601F07AF80346012B05D04FF0E2
:1023900080610D4806F0E5FF0CE04FF080610A48CF
:1023A00006F0EDFF094B4FF080521A60BFF34F8FDC
:1023B000BFF36F8F034B186800230022002100F049
:1023C0007FFEDBE70801002000F10F4004ED00E094
:1023D00080B582B000AF87ED010A534BD3ED007A90
:1023E00097ED017AB4EEE77AF1EE10FA7CD54E4B18
:1023F000D3ED007AF1EE677A97ED017AB4EEE77AE1
:10240000F1EE10FA70DD494B1B78DBB2002B58D08F
:10241000474B1B680A2B54D9454B1B680F2B50D9CF
:10242000444B1B8801339AB2424B1A80424B93EDC6
:10243000007A424BD3ED027A77EE277A3E4BC3ED1A
:10244000007A3D4B93ED017A3C4BD3ED037A77EE66
:10245000277A394BC3ED017A374B93ED027A374B2C
:10246000D3ED047A77EE277A334BC3ED027A314B02
:102470001B8840F2DB52934223D92F4B93ED007A15
:10248000DFED2F6AC7EE267A2E4BC3ED007A2A4B7A
:1024900093ED017ADFED2A6AC7EE267A294BC3ED68
:1024A000017A254B93ED027ADFED256AC7EE267A95
:1024B000244BC3ED027A1F4B00221A801B4B0022D3
:1024C0001A701B4B1B68192B29D9194B19221A603A
:1024D0004FF480011C4806F044FF4FF400111A48E5
:1024E00006F04DFF00231BE0134B4FF000021A6073
:1024F000114B4FF000025A600F4B4FF000029A60F0
:102500000B4B00221A604FF480010F4806F037FF92
:102510004FF400110C4806F024FF012300E00223D1
:1025200018460837BD4680BD58000020222D0020E7
:102530004C0100201A2D0020D0010020E0010020D5
:102540000080BB44C401002040F00F4080B582B041
:1025500002AF08F015FA08F07EF908F0D4F908F097
:1025600069F905F035FB394804F00CFD374B4FF4A1
:1025700061321A60354B0122DA72344B01221A7330
:10258000002002F009FD03461A463049304804F0A5
:102590007FFB304803F0F0F840F2031200212D4891
:1025A000FFF7A2FB4FF4817201212A48FFF79CFB41
:1025B00000212848FFF77AFB01212648FFF776FB28
:1025C000254803F01DFA2449244803F0CDF90022E0
:1025D0002249234803F05CFB01222049214803F0F3
:1025E00057FB204B01931E4B009300231E4A1F49AB
:1025F000174804F06FFE1E4B1E4A1A601C4B4D22FA
:102600005A601D4B01221A70194A1849104804F0EB
:10261000DFFE00E000BF184B1B78DBB2002BF9D1C6
:10262000164B174A1A60154B40225A60154B164A32
:102630001A60144B05225A60272006F079FE134BCE
:1026400000221A6000BFBD4680BD00BF20010020EF
:1026500000A0064000100240300100200080004031
:10266000D8000020F0000020351D0000BC00002034
:102670003401002000000020202D00203C0100201B
:1026800068010020440100201801002014010020EE
:1026900080B586B000AF4C4B1B790A2B40F0908080
:1026A000494B1B786B2B78D1484B7B61786908F0DC
:1026B000F2FA0346FB74FB7C434A1344FB60FB7C49
:1026C0001A467969404808F086FA0346002B20D163
:1026D0003B1D1946F868FFF7E3F853EC102B104642
:1026E000194606F02DF90346BB6097ED027ADFED3F
:1026F000386AC7EE267A374BC3ED007A354BD3EDF7
:10270000007AB7EE007A77EE677A334BC3ED007A42
:1027100056E0324B7B61786908F0BDFA0346FB74E2
:10272000FB7C294A1344FB60FB7C1A4679692648E6
:1027300008F051FA0346002B0DD13B1D1946F868ED
:10274000FFF7AEF853EC102B1046194606F0F8F8D8
:102750000346BB6034E0224B7B61786908F09BFA4A
:102760000346FB74FB7C184A1344FB60FB7C1A464F
:102770007969154808F02FFA0346002B0DD13B1D4F
:102780001946F868FFF78CF853EC102B10461946E1
:1027900006F0D6F80346BB6012E00B4B1B787A2B91
:1027A0000ED1104B01221A700F4B4FF000021A602D
:1027B0000D4B4FF000025A600B4B4FF000029A6035
:1027C0001837BD4680BD00BF50010020F8B300009F
:1027D000000080425000002054000020FCB30000A4
:1027E00000B40000222D0020D001002080B58AB066
:1027F00000AF78600023FB6101F038F8654B1B687F
:10280000002B01D100F034F9634B1A687B68134048
:10281000002B40F0A7807B68002B2DD008227B681E
:1028200013447A689A4227D208227B6813447B605B
:102830007B6803F00703002B21D07B6823F007039C
:1028400008337A689A4214D27B6823F0070308336E
:102850007B607B6803F00703002B10D04FF0200350
:1028600083F31188BFF36F8FBFF34F8F7B6100BF7E
:10287000FEE700237B6002E000237B6000E000BFF6
:102880007B68002B6ED0454B1B687A689A4269D8EA
:10289000434B3B62424B1B687B6204E07B6A3B62BA
:1028A0007B6A1B687B627B6A5B687A689A4203D9A1
:1028B0007B6A1B68002BF1D1364B1B687A6A9A42FF
:1028C00050D03B6A1B6808221344FB617B6A1A687C
:1028D0003B6A1A607B6A5A687B68D21A08235B00DD
:1028E0009A421FD97A6A7B681344BB61BB6903F0C3
:1028F0000703002B0AD04FF0200383F31188BFF3A6
:102900006F8FBFF34F8F3B6100BFFEE77B6A5A6852
:102910007B68D21ABB695A607B6A7A685A60B86968
:1029200000F008F91D4B1A687B6A5B68D31A1B4AD2
:1029300013601A4B1A681B4B1B689A4203D2174B41
:102940001B68184A13607B6A5A68134B1B681A434A
:102950007B6A5A607B6A00221A60134B1B68013342
:10296000114A136000F090FFFB6903F00703002B8E
:102970000AD04FF0200383F31188BFF36F8FBFF3AA
:102980004F8FFB6000BFFEE7FB6918462837BD4646
:1029900080BD00BF142A0020282A0020182A002009
:1029A0000C2A00201C2A0020202A002080B586B096
:1029B00000AF78607B687B617B68002B4DD008237B
:1029C0005B427A6913447B617B693B613B695A686E
:1029D000244B1B681340002B0AD14FF0200383F3D4
:1029E0001188BFF36F8FBFF34F8FFB6000BFFEE70F
:1029F0003B691B68002B0AD04FF0200383F311883A
:102A0000BFF36F8FBFF34F8FBB6000BFFEE73B6923
:102A10005A68144B1B681340002B1ED03B691B687F
:102A2000002B1AD13B695A680E4B1B68DB431A40D6
:102A30003B695A6000F01AFF3B695A680A4B1B68F1
:102A40001344094A1360386900F074F8074B1B6897
:102A50000133064A136000F017FF00BF1837BD4668
:102A600080BD00BF282A0020182A0020242A002028
:102A700080B485B000AF4FF42053BB60274BFB60A0
:102A8000FB6803F00703002B0CD0FB680733FB60E7
:102A9000FB6823F00703FB60BA68FB68D31A1F4A80
:102AA0001344BB60FB687B601D4A7B6813601C4B52
:102AB00000225A607B68BA681344FB600822FB68F6
:102AC0009B1AFB60FB6823F00703FB60FB68154A59
:102AD0001360144B1B6800225A60124B1B680022C3
:102AE0001A607B683B603B68FA68D21A3B685A60A0
:102AF0000C4B1A683B681A603B685B680A4A1360B3
:102B00003B685B68094A1360094B4FF000421A604A
:102B100000BF1437BD465DF8047B70470C020020EF
:102B20000C2A0020142A00201C2A0020182A002029
:102B3000282A002080B485B000AF7860284BFB6065
:102B400002E0FB681B68FB60FB681B687A689A42BE
:102B5000F7D8FB68BB60FB685B68BA6813447A68A7
:102B60009A4208D1FB685A687B685B681A44FB6824
:102B70005A60FB687B607B68BB607B685B68BA6897
:102B80001A44FB681B689A4218D1FB681A68154BF7
:102B90001B689A420DD07B685A68FB681B685B68AB
:102BA0001A447B685A60FB681B681A687B681A6065
:102BB00008E00C4B1A687B681A6003E0FB681A682F
:102BC0007B681A60FA687B689A4202D0FB687A6870
:102BD0001A6000BF1437BD465DF8047B704700BF24
:102BE0000C2A0020142A002080B485B000AFF860C1
:102BF000B9607A60FB68043BFB60FB684FF0807251
:102C00001A60FB68043BFB60BB6823F00102FB68B1
:102C10001A60FB68043BFB600C4AFB681A60FB68A7
:102C2000143BFB607A68FB681A60FB68043BFB603E
:102C3000FB686FF002021A60FB68203BFB60FB68D8
:102C400018461437BD465DF8047B7047512C0000D0
:102C500080B485B000AF00237B60124B1B68B3F1DA
:102C6000FF3F0AD04FF0200383F31188BFF36F8F2B
:102C7000BFF34F8FFB6000BFFEE74FF0200383F3ED
:102C80001188BFF36F8FBFF34F8FBB6000BF00BFD2
:102C90007B68002BFCD000BF00BF1437BD465DF839
:102CA000047B70475C00002008480068006880F3DF
:102CB00008884FF0000080F3148862B661B6BFF355
:102CC0004F8FBFF36F8F00DF00BF000008ED00E003
:102CD00000BF00BF80B586B000AF464B1B68464AB8
:102CE00093420AD14FF0200383F31188BFF36F8F13
:102CF000BFF34F8F3B6100BFFEE73E4B1B683F4A6F
:102D000093420AD14FF0200383F31188BFF36F8FF2
:102D1000BFF34F8FFB6000BFFEE7394B7B617B69E0
:102D20001B78DBB27B607B69FF221A707B691B78A2
:102D3000DBB2FB70FB78DBB203F02003DAB2314B7D
:102D40001A70314B07221A6009E02F4B1B68013BB8
:102D50002D4A1360FB78DBB25B00DBB2FB70FB78C3
:102D6000DBB203F08003802BEFD0274B1B68C3F14D
:102D70000703042B0AD04FF0200383F31188BFF31D
:102D80006F8FBFF34F8FBB6000BFFEE71E4B1B680A
:102D90001B021D4A13601C4B1B6803F4E0631A4AB4
:102DA00013607B68DAB27B691A70184B1B68174A8C
:102DB00043F470031360154B1B68144A43F07043CF
:102DC000136000F0A5F8124B00221A6000F0C4F85E
:102DD000104B1B680F4A43F040431360FFF764FF3A
:102DE00000F0A8FEFFF734FF002318461837BD4651
:102DF00080BD00BF00ED00E071C20F4170C20F4105
:102E000000E400E0242D00202C2A002020ED00E02A
:102E10005C00002034EF00E080B483B000AF4FF0DE
:102E2000200383F31188BFF36F8FBFF34F8F7B6055
:102E300000BF0F4B1B6801330D4A13600C4B1B681E
:102E4000012B0FD10B4B1B68DBB2002B0AD04FF0CC
:102E5000200383F31188BFF36F8FBFF34F8F3B6065
:102E600000BFFEE700BF0C37BD465DF8047B70472E
:102E70005C00002004ED00E080B483B000AF124B92
:102E80001B68002B0AD14FF0200383F31188BFF396
:102E90006F8FBFF34F8F7B6000BFFEE70A4B1B684D
:102EA000013B094A1360084B1B68002B05D1002326
:102EB0003B603B6883F3118800BF00BF0C37BD4601
:102EC0005DF8047B704700BF5C00002080B582B0D5
:102ED00000AF4FF0200383F31188BFF36F8FBFF370
:102EE0004F8F7B6000BF00F07BFD0346002B03D0BB
:102EF000064B4FF080521A6000233B603B6883F31F
:102F0000118800BF00BF0837BD4680BD04ED00E05A
:102F100080B400AF0B4B00221A600B4B00221A60EA
:102F20000A4B1B680A4AA2FB03239B09094A013B7F
:102F30001360044B07221A6000BFBD465DF8047B96
:102F4000704700BF10E000E018E000E06C000020D7
:102F50001F85EB5114E000E0DFF80C00016841F43C
:102F6000700101607047000088ED00E000BF00BF05
:102F700080B485B000AFEFF30583FB60FB680F2BD7
:102F800014D9174AFB6813441B78FB72154B1B7846
:102F9000FA7A9A420AD24FF0200383F31188BFF3E2
:102FA0006F8FBFF34F8F7B6000BFFEE70E4B1B6838
:102FB00003F4E0620D4B1B689A420AD94FF02003DC
:102FC00083F31188BFF36F8FBFF34F8F3B6000BF58
:102FD000FEE700BF1437BD465DF8047B704700BFB5
:102FE000F0E300E0242D00200CED00E02C2A00206E
:102FF00080B584B000AF786039607B68FB60FB68A7
:10300000002B0AD14FF0200383F31188BFF36F8F99
:10301000BFF34F8FBB6000BFFEE7FFF7FDFEFB680D
:103020001A68FB68DB6BF968096C01FB03F31A444F
:10303000FB689A60FB6800229A63FB681A68FB6869
:103040005A60FB681A68FB68DB6B013BF968096C26
:1030500001FB03F31A44FB68DA60FB68FF2283F884
:103060004420FB68FF2283F845203B68002B14D1E5
:10307000FB681B69002B1AD0FB681033184600F060
:1030800005FE0346002B12D00C4B4FF080521A6005
:10309000BFF34F8FBFF36F8F09E0FB681033184603
:1030A00006F09EF9FB682433184606F099F9FFF7FD
:1030B000E3FE012318461037BD4680BD04ED00E055
:1030C00080B58EB000AFF860B9607A603B600023D5
:1030D0007B63FB683B633B6B002B0AD14FF0200303
:1030E00083F31188BFF36F8FBFF34F8FBB6200BFB5
:1030F000FEE7BB68002B03D13B6B1B6C002B01D19F
:10310000012300E00023002B0AD14FF0200383F3BA
:103110001188BFF36F8FBFF34F8F7B6200BFFEE755
:103120003B68022B03D13B6BDB6B012B01D10123ED
:1031300000E00023002B0AD14FF0200383F3118815
:10314000BFF36F8FBFF34F8F3B6200BFFEE700F00E
:1031500029FF0346002B02D17B68002B01D10123FC
:1031600000E00023002B0AD14FF0200383F31188E5
:10317000BFF36F8FBFF34F8FFB6100BFFEE7FFF719
:103180004BFE3B6B9A6B3B6BDB6B9A4202D33B680B
:10319000022B29D13A68B968386B06F06EFBF862E9
:1031A0003B6B5B6A002B10D03B6B2433184600F05E
:1031B0006DFD0346002B13D03F4B4FF080521A6039
:1031C000BFF34F8FBFF36F8F0AE0FB6A002B07D06E
:1031D000394B4FF080521A60BFF34F8FBFF36F8FA0
:1031E000FFF74AFE012363E07B68002B03D1FFF762
:1031F00043FE00235CE07B6B002B06D107F1140338
:10320000184600F0A5FD01237B63FFF735FE00F0B3
:103210002DFBFFF701FE3B6B93F844305BB2B3F13B
:10322000FF3F03D13B6B002283F844203B6B93F8B4
:1032300045305BB2B3F1FF3F03D13B6B002283F813
:103240004520FFF719FE3A1D07F1140311461846F1
:1032500000F094FD0346002B24D1386B06F005FCEA
:103260000346002B18D03B6B10337A681146184682
:1032700000F0BCFC386B06F090FB00F005FB034649
:10328000002B7FF47CAF0C4B4FF080521A60BFF3E1
:103290004F8FBFF36F8F72E7386B06F07EFB00F045
:1032A000F3FA6CE7386B06F078FB00F0EDFA0023D8
:1032B00018463837BD4680BD04ED00E080B58CB0BF
:1032C00000AFF860B9607A600023FB62FB68BB6204
:1032D000BB6A002B0AD14FF0200383F31188BFF3A0
:1032E0006F8FBFF34F8F3B6200BFFEE7BB68002BC1
:1032F00003D1BB6A1B6C002B01D1012300E000232A
:10330000002B0AD14FF0200383F31188BFF36F8F96
:10331000BFF34F8FFB6100BFFEE700F043FE0346A3
:10332000002B02D17B68002B01D1012300E0002398
:10333000002B0AD14FF0200383F31188BFF36F8F66
:10334000BFF34F8FBB6100BFFEE7FFF765FDBB6AB0
:103350009B6B7B627B6A002B1FD0B968B86A06F052
:10336000F6FA7B6A5A1EBB6A9A63BB6A1B69002B1A
:103370000FD0BB6A1033184600F088FC0346002BC0
:1033800007D03D4B4FF080521A60BFF34F8FBFF311
:103390006F8FFFF771FD012369E07B68002B03D17C
:1033A000FFF76AFD002362E0FB6A002B06D107F1FC
:1033B0001003184600F0CCFC0123FB62FFF75CFD14
:1033C00000F054FAFFF728FDBB6A93F844305BB273
:1033D000B3F1FF3F03D1BB6A002283F84420BB6AEC
:1033E00093F845305BB2B3F1FF3F03D1BB6A0022D3
:1033F00083F84520FFF740FD3A1D07F11003114601
:10340000184600F0BBFC0346002B23D1B86A06F037
:1034100016FB0346002B17D0BB6A24337A6811468B
:10342000184600F0E3FBB86A06F0B7FA00F02CFA91
:103430000346002B89D1104B4FF080521A60BFF326
:103440004F8FBFF36F8F80E7B86A06F0A6FA00F0DF
:103450001BFA7AE7B86A06F0A0FA00F015FAB86A23
:1034600006F0EDFA0346002B3FF46FAF0023184639
:103470003037BD4680BD00BF04ED00E080B58EB0A2
:1034800000AF7860396000237B637B68FB620023B8
:10349000BB6200233B63FB6A002B0AD14FF0200381
:1034A00083F31188BFF36F8FBFF34F8FFB6100BFB2
:1034B000FEE7FB6A1B6C002B0AD04FF0200383F35E
:1034C0001188BFF36F8FBFF34F8FBB6100BFFEE763
:1034D00000F068FD0346002B02D13B68002B01D1B0
:1034E000012300E00023002B0AD14FF0200383F3D7
:1034F0001188BFF36F8FBFF34F8F7B6100BFFEE773
:10350000FFF78AFCFB6A9B6B7B627B6A002B24D0F3
:103510007B6A5A1EFB6A9A63FB6A1B68002B04D104
:1035200000F0DCFE0246FB6A9A60FB6A1B69002B16
:103530000FD0FB6A1033184600F0A8FB0346002B9F
:1035400007D0544B4FF080521A60BFF34F8FBFF338
:103550006F8FFFF791FC012397E03B68002B11D19F
:103560003B6B002B0AD04FF0200383F31188BFF38D
:103570006F8FBFF34F8F3B6100BFFEE7FFF77CFC0F
:10358000002382E07B6B002B06D107F1080318466D
:1035900000F0DEFB01237B63FFF76EFC00F066F9B1
:1035A000FFF73AFCFB6A93F844305BB2B3F1FF3F9C
:1035B00003D1FB6A002283F84420FB6A93F845306C
:1035C0005BB2B3F1FF3F03D1FB6A002283F84520D1
:1035D000FFF752FC3A4607F108031146184600F07F
:1035E000CDFB0346002B32D1F86A06F028FA0346D9
:1035F000002B26D0FB6A1B68002B09D1FFF70CFCBF
:10360000FB6A9B68184600F0EBFC3863FFF734FC5C
:10361000FB6A24333A681146184600F0E7FAF86A64
:1036200006F0BBF900F030F90346002B7FF468AFD9
:10363000184B4FF080521A60BFF34F8FBFF36F8F5C
:103640005EE7F86A06F0A9F900F01EF958E7F86A93
:1036500006F0A3F900F018F9F86A06F0F0F903464D
:10366000002B3FF44DAF3B6B002B0DD0FFF7D4FB8D
:10367000F86A06F0EAF83862FB6A9B68396A18460D
:1036800000F09EFDFFF7F8FB002318463837BD46D3
:1036900080BD00BF04ED00E080B485B000AF78606D
:1036A00039600023FB6014E00F4AFB6852F83330A6
:1036B000002B0BD10C49FB683A6841F833200A4AC9
:1036C000FB68DB0013447A685A6006E0FB6801334C
:1036D000FB60FB68072BE7D900BF00BF1437BD466E
:1036E0005DF8047B704700BF302A002080B582B0AF
:1036F00000AF7860FFF790FB2C4B1B6801332B4A1F
:1037000013602B4B1B68002B09D1294A7B6813607F
:10371000264B1B68012B10D100F0BAFB0DE0254BA6
:103720001B68002B09D1224B1B68DA6A7B68DB6AB5
:103730009A4202D81E4A7B6813601F4B1B680133F4
:103740001D4A13601C4B1A687B689A647B68DB6AAD
:1037500001229A40194B1B681343184A13607B6877
:10376000DA6A13469B0013449B00154A1A447B688F
:1037700004331946104605F060FEFFF77DFB0D4B44
:103780001B68002B0ED00A4B1B68DA6A7B68DB6A69
:103790009A4207D20B4B4FF080521A60BFF34F8F03
:1037A000BFF36F8F00BF0837BD4680BD482B002098
:1037B000702A0020542B0020642B0020502B002066
:1037C000742A002004ED00E080B586B002AF204BE3
:1037D00001930023009300235A221E491E4806F03D
:1037E00090F9F860FB68012B02D100F0F1FDF86060
:1037F000FB68012B16D14FF0200383F31188BFF330
:103800006F8FBFF34F8FBB6000BF144B4FF0FF3281
:103810001A60134B01221A60124B00221A60FFF744
:1038200059FA0EE0FB68B3F1FF3F0AD14FF02003D5
:1038300083F31188BFF36F8FBFF34F8F7B6000BF9F
:10384000FEE7094B1B6800BF1037BD4680BD00BFB7
:103850006C2B002000B10000613E0000682B0020AE
:10386000542B00204C2B00206000002080B400AFBF
:10387000044B1B680133034A136000BFBD465DF86B
:10388000047B7047702B002080B584B000AF00230C
:10389000FB600023BB60414B1B68002B0AD14FF03B
:1038A000200383F31188BFF36F8FBFF34F8F3B600B
:1038B00000BFFEE7FFF7B0FA384B1B68013B374A01
:1038C0001360364B1B68002B61D1354B1B68002BF6
:1038D0005DD02EE0334BDB68DB68FB60FB681833A0
:1038E000184605F007FEFB680433184605F002FE93
:1038F000FB68DB6A01229A402B4B1B6813432A4A60
:103900001360FB68DA6A13469B0013449B00274A46
:103910001A44FB6804331946104605F08EFDFB6817
:10392000DA6A234B1B68DB6A9A4202D3214B0122DD
:103930001A601C4B1B68002BCCD1FB68002B01D0FC
:1039400000F014FB1C4B1B687B607B68002B10D0C5
:1039500000F046F80346002B02D0164B01221A60F5
:103960007B68013B7B607B68002BF1D1124B00220E
:103970001A60104B1B68002B09D00123BB600F4B52
:103980004FF080521A60BFF34F8FBFF36F8FFFF776
:1039900073FABB6818461037BD4680BD702B0020F7
:1039A000482B0020082B0020502B0020742A0020D8
:1039B000702A00205C2B0020582B002004ED00E032
:1039C00080B483B000AF054B1B687B607B681846F2
:1039D0000C37BD465DF8047B704700BF4C2B0020C0
:1039E00080B586B000AF00237B61474B1B68002B7E
:1039F0007FD1464B1B6801333B61444A3B691360EE
:103A00003B69002B20D1424B1B681B68002B0AD05E
:103A10004FF0200383F31188BFF36F8FBFF34F8FF5
:103A20003B6000BFFEE73A4B1B68FB60394B1B68ED
:103A3000374A1360374AFB681360374B1B68013302
:103A4000354A136000F092FA344B1B683A699A4287
:103A500048D32F4B1B681B68002B04D12F4B4FF012
:103A6000FF321A603EE02A4B1B68DB68DB68BB60F4
:103A7000BB685B687B603A697B689A4203D2274ADD
:103A80007B6813602EE0BB680433184605F032FDF6
:103A9000BB689B6A002B04D0BB681833184605F03E
:103AA00029FDBB68DB6A01229A401D4B1B6813434A
:103AB0001B4A1360BB68DA6A13469B0013449B00E1
:103AC000184A1A44BB6804331946104605F0B5FC81
:103AD000BB68DA6A144B1B68DB6A9A42B9D30123CC
:103AE0007B61B6E7114B1B68002B07D001237B617C
:103AF00004E00F4B1B6801330D4A13607B691846C5
:103B00001837BD4680BD00BF702B00204C2B002015
:103B1000002B0020042B0020602B0020682B0020AD
:103B2000502B0020742A0020702A00205C2B0020DB
:103B3000582B002080B487B000AF274B1B68002BA8
:103B400003D0264B01221A603FE0244B00221A606A
:103B5000234B1B68FB60FB68B3FA83F3FB72FB7AB1
:103B6000C3F11F037B611F497A6913469B0013440D
:103B70009B000B441B68002B0AD14FF0200383F3FA
:103B80001188BFF36F8FBFF34F8F7B6000BFFEE7DD
:103B90007A6913469B0013449B00124A13443B610D
:103BA0003B695B685A683B695A603B695A683B6984
:103BB00008339A4204D13B695B685A683B695A6092
:103BC0003B695B68DB68084A136000BF1C37BD4671
:103BD0005DF8047B704700BF702B00205C2B002039
:103BE000502B0020742A0020702A002080B584B059
:103BF00000AF786039607B68002B0AD14FF020035A
:103C000083F31188BFF36F8FBFF34F8FFB6000BF4B
:103C1000FEE7074B1B6818331946786805F031FC3E
:103C20000121386800F06EFB00BF1037BD4680BD33
:103C3000702A002080B586B000AFF860B9607A6065
:103C4000FB68002B0AD14FF0200383F31188BFF3E8
:103C50006F8FBFF34F8F7B6100BFFEE70A4B1B687E
:103C600018331946F86805F0E8FB7B68002B02D092
:103C70004FF0FF33BB607968B86800F043FB00BFCA
:103C80001837BD4680BD00BF702A002080B586B0C1
:103C900000AF78607B68DB68DB683B613B69002BC9
:103CA0000AD14FF0200383F31188BFF36F8FBFF366
:103CB0004F8FFB6000BFFEE73B691833184605F0E5
:103CC00019FC1D4B1B68002B1CD13B6904331846A3
:103CD00005F010FC3B69DB6A01229A40174B1B6818
:103CE0001343164A13603B69DA6A13469B00134478
:103CF0009B00134A1A443B6904331946104605F0E9
:103D00009CFB05E03B69183319460E4805F095FB0E
:103D10003B69DA6A0C4B1B68DB6A9A4205D90123BE
:103D20007B610A4B01221A6001E000237B617B6901
:103D300018461837BD4680BD702B0020502B002040
:103D4000742A0020082B0020702A00205C2B002001
:103D500080B483B000AF7860064B1A687B681A6045
:103D6000054B1A687B685A6000BF0C37BD465DF88A
:103D7000047B7047602B00204C2B002080B588B05E
:103D800000AF786039607B68002B0AD14FF02003C8
:103D900083F31188BFF36F8FBFF34F8F3B6100BF79
:103DA000FEE73B68002B0AD14FF0200383F3118814
:103DB000BFF36F8FBFF34F8FFB6000BFFEE7FFF7CE
:103DC0002BF81F4B1B68BB617B685B68BA69D31A11
:103DD0007B613B681B68B3F1FF3F02D10023FB61AD
:103DE00026E07B681A68174B1B689A420AD07B68EA
:103DF0005B68BA699A4205D30123FB613B680022E4
:103E00001A6015E03B681B687A699A420BD23B68DE
:103E10001A687B69D21A3B681A607868FFF798FFC6
:103E20000023FB6104E03B6800221A600123FB6170
:103E3000FFF722F8FB6918462037BD4680BD00BF5A
:103E40004C2B0020602B002080B400AF034B0122DC
:103E50001A6000BFBD465DF8047B70475C2B0020F4
:103E600080B582B000AF786000F052F8064B1B6856
:103E7000012BF9D9054B4FF080521A60BFF34F8FD9
:103E8000BFF36F8FF0E700BF742A002004ED00E05D
:103E900080B582B000AF00237B600CE07A681346E7
:103EA0009B0013449B00124A1344184605F098FAED
:103EB0007B6801337B607B68042BEFD90D4805F0EC
:103EC0008FFA0D4805F08CFA0C4805F089FA0C4879
:103ED00005F086FA0B4805F083FA0B4B054A1A6089
:103EE0000A4B054A1A6000BF0837BD4680BD00BFB7
:103EF000742A0020D82A0020EC2A0020082B002059
:103F00001C2B0020342B0020002B0020042B002031
:103F100080B582B000AF19E0FEF77EFF104BDB6882
:103F2000DB687B607B680433184605F0E3FA0D4BD1
:103F30001B68013B0B4A13600B4B1B68013B0A4A91
:103F40001360FEF799FF786805F0B9FE064B1B6811
:103F5000002BE1D100BF00BF0837BD4680BD00BFC8
:103F60001C2B0020482B0020302B002080B400AFF9
:103F70000A4B1B681B68002B04D1094B4FF0FF3222
:103F80001A6005E0054B1B68DB681B68044A136078
:103F900000BFBD465DF8047B704700BF002B0020CA
:103FA000682B002080B483B000AF0B4B1B68002B44
:103FB00002D101237B6008E0084B1B68002B02D173
:103FC00002237B6001E000237B607B6818460C378E
:103FD000BD465DF8047B7047542B0020702B0020F9
:103FE00080B584B000AF78607B68BB600023FB6065
:103FF0007B68002B5ED0BB68DA6A314B1B68DB6ADA
:104000009A424ED2BB689B69002B06DB2C4B1B6887
:10401000DB6AC3F10502BB689A61BB685969BB687A
:10402000DA6A13469B0013449B00264A13449942C4
:104030002FD1BB680433184605F05CFA0346002B09
:104040000AD1BB68DB6A012202FA03F3DA431E4B92
:104050001B6813401C4A1360194B1B68DA6ABB6863
:10406000DA62BB68DB6A01229A40174B1B68134374
:10407000154A1360BB68DA6A13469B0013449B0021
:10408000104A1A44BB6804331946104605F0D5F9A6
:1040900004E00B4B1B68DA6ABB68DA620123FB6041
:1040A00008E0BB681A6D064B1B68DB6A9A4201D2B6
:1040B0000123FB60FB6818461037BD4680BD00BF7A
:1040C000702A0020742A0020502B002080B586B072
:1040D00000AF78607B683B6100237B617B68002BCD
:1040E00063D0344B1B683A699A420AD04FF02003E0
:1040F00083F31188BFF36F8FBFF34F8FFB6000BF57
:10410000FEE73B695B6D002B0AD14FF0200383F380
:104110001188BFF36F8FBFF34F8FBB6000BFFEE707
:104120003B695B6D5A1E3B695A653B69DA6A3B69BC
:104130001B6D9A4239D03B695B6D002B35D13B69D1
:104140000433184605F0D6F90346002B0AD13B6923
:10415000DB6A012202FA03F3DA43174B1B681340B0
:10416000154A13603B691A6D3B69DA623B69DB6A89
:10417000C3F105023B699A613B69DB6A01229A40FF
:104180000D4B1B6813430C4A13603B69DA6A1346F4
:104190009B0013449B00094A1A443B6904331946A7
:1041A000104605F04AF901237B617B6918461837F0
:1041B000BD4680BD702A0020502B0020742A0020AC
:1041C00080B588B000AF786039607B68BB6101233F
:1041D0007B617B68002B77D0BB695B6D002B0AD1BC
:1041E0004FF0200383F31188BFF36F8FBFF34F8F1E
:1041F000FB6000BFFEE7BB691B6D3A689A4202D9BB
:104200003B68FB6102E0BB691B6DFB61BB69DB6A5C
:10421000FA699A4258D0BB695B6D7A699A4253D168
:104220002B4B1B68BA699A420AD14FF0200383F3E3
:104230001188BFF36F8FBFF34F8FBB6000BFFEE7E6
:10424000BB69DB6A3B61BB69FA69DA62BB699B697E
:10425000002B04DBFB69C3F10502BB699A61BB69F2
:1042600059693A6913469B0013449B00194A134449
:10427000994229D1BB690433184605F03BF903463E
:10428000002B0AD1BB69DB6A012202FA03F3DA438D
:10429000114B1B681340104A1360BB69DB6A012293
:1042A0009A400D4B1B6813430B4A1360BB69DA6AD3
:1042B00013469B0013449B00064A1A44BB6904330F
:1042C0001946104605F0B9F800BF2037BD4680BD3D
:1042D000702A0020742A0020502B002080B400AFE8
:1042E000074B1B68002B04D0054B1B685A6D01322D
:1042F0005A65034B1B681846BD465DF8047B704742
:10430000702A002080B584B000AF78603960294BF6
:104310001B68FB60284B1B680433184605F0EAF85D
:104320000346002B0BD1244B1B68DB6A012202FAE7
:1043300003F3DA43214B1B681340204A13607B6868
:10434000B3F1FF3F0AD13B68002B07D01A4B1B6823
:10435000043319461A4805F070F826E0FA687B68BD
:104360001344BB60144B1B68BA685A60BA68FB6898
:104370009A4209D2134B1A680F4B1B680433194633
:10438000104605F07EF810E00F4B1A680A4B1B68C8
:1043900004331946104605F074F80C4B1B68BA68D4
:1043A0009A4202D2094ABB68136000BF1037BD466B
:1043B00080BD00BF4C2B0020702A0020502B002015
:1043C000342B0020042B0020002B0020682B002021
:1043D00080B584B002AF00237B6000F0DFFA114BA0
:1043E0001B68002B0AD0104B019304230093002379
:1043F000B4220E490E4805F084FB78607B68002BE0
:104400000AD14FF0200383F31188BFF36F8FBFF3FE
:104410004F8F3B6000BFFEE77B6818460837BD46FC
:1044200080BD00BFA42B0020A82B002004B40000F6
:10443000979D000080B58AB000AFF860B9607A60DF
:104440003B6000237B62FB68002B0AD14FF0200306
:1044500083F31188BFF36F8FBFF34F8F3B6200BFB1
:10446000FEE71A4B1B68002B2AD0BB683B617B68B8
:104470007B61FB68BB61BB68052B18DCFFF792FD15
:104480000346022B09D1114B186807F110010023D4
:104490003A6BFEF715FE786212E00C4B186807F1D4
:1044A000100100230022FEF70BFE786208E0074BA4
:1044B000186807F1100100233A6805F0F9F87862EE
:1044C0007B6A18462837BD4680BD00BFA42B00205C
:1044D00080B588B002AF78603960224B1B68DB681A
:1044E000DB687B617B690433184605F003F87B6960
:1044F00093F8283003F00403002B22D07B699A69DB
:104500007B68D1187B683A68786900F0BFF8034689
:10451000002B1FD00023009300237A6800217869C4
:10452000FFF788FF38613B69002B13D14FF0200360
:1045300083F31188BFF36F8FBFF34F8FFB6000BF12
:10454000FEE77B6993F8283023F00103DAB27B6938
:1045500083F828207B691B6A7869984700BF183761
:10456000BD4680BD9C2B002080B584B000AF786034
:104570003960FFF77BF907F10803184600F066F889
:10458000F860BB68002B30D13B68002B0AD17A68F9
:10459000FB689A4206D8FFF777F9F9687868FFF761
:1045A00097FF24E03B68002B08D0134B1B681B6867
:1045B000002B01D1012300E000233B600F4B186862
:1045C0007A68FB68D31A3A68194605F066FAFFF76D
:1045D0005BF90346002B0AD1094B4FF080521A6059
:1045E000BFF34F8FBFF36F8F01E0FFF74DF900BFAF
:1045F0001037BD4680BD00BFA02B0020A42B00209B
:1046000004ED00E080B485B000AF78600E4B1B680D
:104610001B68002B01D1012200E000227B681A6098
:104620007B681B68002B05D1074B1B68DB681B6888
:10463000FB6001E00023FB60FB6818461437BD46B1
:104640005DF8047B704700BF9C2B002080B584B0D0
:1046500000AF7860FFF7B4F9F8600B4B1B68FA689D
:104660009A4205D200F036F97B6801221A6002E016
:104670007B6800221A60044AFB681360FB681846D6
:104680001037BD4680BD00BFAC2B002080B586B082
:1046900000AFF860B9607A603B6000237B61FB6823
:1046A000BA685A60FB68FA681A61BA687B689A420D
:1046B00012D87A683B68D21AFB689B699A4202D387
:1046C00001237B611BE0104B1A68FB680433194619
:1046D000104604F0D6FE12E07A683B689A4206D291
:1046E000BA683B689A4202D301237B6107E0074B1B
:1046F0001A68FB6804331946104604F0C2FE7B6951
:1047000018461837BD4680BDA02B00209C2B0020EA
:1047100080B58EB002AFCAE07B68002B18DA3B1D73
:104720000433FB62FB6A002B0AD14FF0200383F3B2
:104730001188BFF36F8FBFF34F8FFB6100BFFEE7A0
:10474000FB6A1B68FA6A5068FA6A926811469847D1
:104750007B68002BC0F2AA80FB68BB62BB6A5B6906
:10476000002B04D0BB6A0433184604F0C3FE3B465A
:104770001846FFF76BFF78627B68092B00F2978081
:1047800001A252F823F000BFB1470000B14700007A
:10479000B147000025480000394800008348000068
:1047A000B1470000B147000025480000394800002B
:1047B000BB6A93F8283043F00103DAB2BB6A83F88E
:1047C0002820BA68BB6A9B69D118BB687A6AB86A44
:1047D000FFF75CFF0346002B69D0BB6A1B6AB86A0F
:1047E0009847BB6A93F8283003F00403002B5ED08F
:1047F000BA68BB6A9B691A44002300930023002116
:10480000B86AFFF717FE38623B6A002B4FD14FF0B2
:10481000200383F31188BFF36F8FBFF34F8FBB610A
:1048200000BFFEE7BB6A93F8283023F00103DAB239
:10483000BB6A83F828203AE0BB6A93F8283043F03B
:104840000103DAB2BB6A83F82820BA68BB6A9A61AE
:10485000BB6A9B69002B0AD14FF0200383F31188B8
:10486000BFF36F8FBFF34F8F7B6100BFFEE7BB6A63
:104870009A697B6AD1187B6A7A6AB86AFFF706FF81
:1048800015E0BB6A93F8283003F00203002B03D134
:10489000B86AFEF78BF80AE0BB6A93F8283023F079
:1048A0000103DAB2BB6A83F8282000E000BF084B9E
:1048B0001B68391D00221846FEF700FD0346002B39
:1048C0007FF42AAF00BF00BF3037BD4680BD00BFB8
:1048D000A42B002080B588B002AF48E02D4B1B68A8
:1048E000DB681B683B612B4B1B68DB68DB68FB608C
:1048F000FB680433184604F0FDFDFB681B6AF8688A
:104900009847FB6893F8283003F00403002B2ED05F
:10491000FB689B693A691344BB60BA683B699A4279
:104920000ED9FB68BA685A60FB68FA681A61194BBD
:104930001A68FB6804331946104604F0A2FD16E01D
:104940000023009300233A690021F868FFF772FD05
:1049500078607B68002B0AD14FF0200383F3118825
:10496000BFF36F8FBFF34F8F3B6000BFFEE7094B74
:104970001B681B68002BB1D1064B1B687B61064B83
:104980001B68044A1360044A7B69136000BF183730
:10499000BD4680BD9C2B0020A02B002080B500AF21
:1049A000FEF73AFA124B1B68002B1DD1114804F098
:1049B00017FD114804F014FD104B0E4A1A60104BFD
:1049C0000D4A1A60002210210A2004F0BDFD0346A2
:1049D000074A1360064B1B68002B05D0044B1B686D
:1049E00008491846FEF758FEFEF746FA00BF80BD9C
:1049F000A42B0020742B0020882B00209C2B00204F
:104A0000A02B00200CB4000080B584B000AF78600B
:104A10000023FB6009E00D4AFB6852F823307A68F6
:104A20009A4206D0FB680133FB60FB68012BF2D988
:104A300000E000BFFB68012B02D9054803F06AF9CA
:104A4000FB6818461037BD4680BD00BF14B4000097
:104A500024B4000080B584B000AF786039603B6852
:104A6000002B02D13F4803F055F97868FFF7CCFFDF
:104A700003463D4A52F82330184605F0BEF93B681C
:104A80005B7803F003023B681B799B0003F00C0387
:104A90001343FB603B685B79042B03D0FB6843F056
:104AA0001003FB603B68DB785B0103F06003FA688E
:104AB0001343FB603B68DB79002B03D0FB6843F0BA
:104AC0008003FB607B68FA689A607B68DB6823F090
:104AD0000F03FB603B685B79042B06D03B685B7976
:104AE00003F00303FA681343FB603B689B79002BD8
:104AF00003D0FB6843F00403FB603B689B78002B0A
:104B000003D0FB6843F00803FB607B68FA68DA6057
:104B10007B681B6A23F00303FB603B681B7803F090
:104B20000303FA681343FB607B68FA681A623B6808
:104B30001B7A002B06D07B685B6A43F008027B6817
:104B40005A6205E07B685B6A23F008027B685A6260
:104B50003B685B7A1946786805F01DFA00BF10378C
:104B6000BD4680BD5CB400001CB4000080B586B0BA
:104B700000AFF860B9607A60BB68012B02D91348B6
:104B800003F0C8F87B68002B02D1114803F0C2F88B
:104B90007B681B6803F01F037B617B685B79002BDC
:104BA00003D07B6943F020037B617B681B79002B7A
:104BB00003D07B6943F040037B61FB68BA68796985
:104BC00043F8221000BF1837BD4680BD7CB40000FA
:104BD000ACB4000080B584B000AF786039603B6849
:104BE000012B02D90A4803F095F80023FB607B688B
:104BF0003A6853F8223003F08003002B03D0FB689F
:104C000043F08003FB60FB6818461037BD4680BD4B
:104C1000D0B4000080B483B000AF7860084B1B684C
:104C200023F440227B689B0403F44023044913438C
:104C30000B6000BF0C37BD465DF8047B704700BFBA
:104C40000070044080B483B000AF78600A4B03F575
:104C500080535B6823F440327B681B0403F44033C9
:104C60000549134301F58052536000BF0C37BD4620
:104C70005DF8047B704700BF0070044080B582B0CF
:104C800000AF174B1B7BDBB203F00303022B1CD0DE
:104C9000022B1DD8002B02D0012B0BD018E0114B9A
:104CA0001B68002B02D1104803F034F80D4B1B6831
:104CB0007B6010E00D4B1B68002B02D10C4803F009
:104CC00029F80A4B1B687B6005E00A4B7B6002E019
:104CD00000237B6000BF7B6818460837BD4680BD57
:104CE00000400640B02B002000B50000B42B00208F
:104CF00024B50000006CDC0280B582B000AFFFF785
:104D0000BDFF7860254B1B78DBB2DB08DBB203F01C
:104D10000703FB70FB787A6822FA03F37B601F4B72
:104D20005B78DBB21B09DBB203F00303BB701B4BE8
:104D30001B7BDBB203F003037B70BB78002B02D03C
:104D40007B78002B02D07B78022B21D1FB78072BBC
:104D500014D0072B19DC052B02DC002B03DA14E03E
:104D6000062B04D011E07B685B097B6011E07B6857
:104D70000B4AA2FB03231B097B600AE07B68094AFC
:104D8000A2FB0323DB087B6003E000237B6000E0E1
:104D900000BF7B6818460837BD4680BD004006400E
:104DA000CDCCCCCCABAAAAAA80B483B000AF0E4BBA
:104DB0009B79DBB203F00103002B03D10B4B1B6883
:104DC0007B600AE00A4B1A68074B1B7ADBB25B0870
:104DD00003F0070322FA03F37B607B6818460C3765
:104DE000BD465DF8047B704700400640640000202B
:104DF0006800002080B582B000AF094B9B79DBB220
:104E000003F01003002B03D1FFF776FF786002E078
:104E1000044B1B687B607B6818460837BD4680BD25
:104E2000004006406400002080B485B000AF786088
:104E30007B6849F69702934202D80023FB7308E08F
:104E40007B68074A934202D80123FB7301E00223E7
:104E5000FB73FB7B18461437BD465DF8047B704737
:104E600000127A0080B582B000AF0C4B1B78DBB229
:104E70005BB2002B0ADA0A4B1B68002B02D10948EF
:104E800002F048FF064B1B687B6001E000237B605B
:104E90007B6818460837BD4680BD00BF00500640FD
:104EA000B02B00204CB5000080B582B000AF184B8D
:104EB0001B689B0C03F00303032B1DD0032B1FD88F
:104EC000002B02D0022B0CD01AE0FFF7CBFF0346D9
:104ED000B3F5004F02D14FF4004300E000237B60A4
:104EE00011E00C4B1B68002B02D10B4802F012FFA3
:104EF000084B1B687B6006E04FF47A737B6002E02E
:104F000000237B6000BF7B6818460837BD4680BD24
:104F100000700440B42B00206CB5000080B582B056
:104F200000AF114B03F580535B681B0C03F00303C8
:104F3000032B0ED0032B0FD8002B02D0012B04D053
:104F40000AE000F099F9786009E000F0EFF9786084
:104F500005E0064B7B6002E000237B6000BF7B68BE
:104F600018460837BD4680BD00700440006CDC0266
:104F700080B500AF00F04EF90246064B03F58053B2
:104F80005B6C1B0F03F00F030133B2FBF3F3184606
:104F900080BD00BF0070044080B584B000AF034600
:104FA000FB71FB79132B00F28A8001A252F823F0E7
:104FB00001500000015000001F5000003D50000053
:104FC0005B500000BF50000079500000815000008D
:104FD00089500000BF500000BF50000091500000F9
:104FE00099500000A1500000A9500000BF500000DF
:104FF000BF500000BF500000B1500000B75000008B
:1050000000F008F90246324B03F580535B6C1B0F2E
:1050100003F00F030133B2FBF3F3FB6052E000F047
:10502000F9F802462A4B03F580535B6C1B0E03F024
:105030000F030133B2FBF3F3FB6043E000F0EAF847
:105040000246234B03F580535B6C1B0D03F00F03EB
:105050000133B2FBF3F3FB6034E000F0DBF802460F
:105060001B4B03F580535B6C1B0C03F00F030133E8
:10507000B2FBF3F3FB6025E0FFF750FFF86021E09F
:10508000FFF712FFF8601DE0FFF7ECFEF86019E093
:1050900005F032F8F86015E000F030F9F86011E042
:1050A00000F0EAF8F8600DE000F040F9F86009E07F
:1050B000084BFB6006E04FF47A73FB6002E00023CC
:1050C000FB6000BFFB6818461037BD4680BD00BFBF
:1050D00000700440006CDC0280B582B000AF7860E4
:1050E000094A7B685B6802F5805253647B681B78D1
:1050F0001846FFF7A7FD7B685B781846FFF78AFD27
:1051000000BF0837BD4680BD0070044080B584B044
:1051100000AF786039600123FB73374804F095FFD6
:105120007B68002B0AD1354B03F580535B68334A0B
:1051300023F4802302F58052536043E03B68304AF9
:10514000934214D03B682E4A93422CD83B682D4A98
:10515000934213D03B682B4A934224D83B682A4A97
:10516000934219D03B68294A93420ED01BE0234B4F
:1051700003F580531A460923936417E01F4B03F588
:1051800080531A460223936410E01C4B03F58053AE
:105190001A460523936409E0184B03F580531A4619
:1051A0000023936402E00023FB7300BF134B03F55D
:1051B00080535B6823F4E02210497B68134301F5B8
:1051C000805253600C4804F026FF7B68B3F5E02F53
:1051D0000DD10F4B032283F844210D4B93F840313E
:1051E000DBB20B4A63F07F03DBB282F84031FB7B1A
:1051F00018461037BD4680BD1200341000700440C0
:10520000000E270700D8B805006CDC0200A24A0493
:105210000020074080B582B000AF164B9B79DBB20F
:105220009B0803F003033B603B68032B1AD801A2E1
:1052300052F823F04D520000555200005D5200001C
:105240004552000000F072F878600EE000F014F8AB
:1052500078600AE0FFF7A8FD786006E0FFF70EFD32
:10526000786002E000237B6000BF7B681846083747
:10527000BD4680BD0040064080B584B000AF1D4BE8
:105280005B78DBB203F00203002B06D1194B9B794C
:10529000DBB203F02003002B02D00023FB6024E0EC
:1052A000FFF7A8FDB860BB68002B02D1BB68FB60AC
:1052B0001BE0104BDB78DBB25B09DBB203F00303CE
:1052C000FB710C4BDB78DBB2DB09DBB203F00103D3
:1052D000BB71FA79BB7908495200134431F8133095
:1052E0001A46BB6802FB03F3FB60FB6818461037E5
:1052F000BD4680BD0040064000B6000080B582B0CB
:1053000000AF094B1B78DBB203F00203002B02D184
:1053100000237B6002E0FFF747FD78607B6818465A
:105320000837BD4680BD00BF0040064080B584B050
:1053300000AF1A4B9B79DBB203F04003002B02D184
:105340000023FB6024E004F0D0FEB860BB68002BB3
:1053500002D1134802F0DEFC104B1B79DBB203F0E4
:105360001F03DBB20133FB71FB79BA68B2FBF3F3C5
:10537000BB600A4B5B79DBB203F01F03DBB218336F
:10538000BB71BA79BB6802FB03F3BB60BB68FB600F
:10539000FB6818461037BD4680BD00BF0040064080
:1053A0008CB5000080B485B000AF0346FB71174B8D
:1053B0001B7BDBB203F00302FB799A4202D001238C
:1053C000FB7301E00023FB73104B1B7BDBB223F06C
:1053D0000303DAB2FB7903F00303DBB20B49134397
:1053E000DBB20B73FB7B002B09D040F2DC53BB60BC
:1053F00000E000BFBB685A1EBA60002BF9D1002341
:1054000018461437BD465DF8047B704700400640DF
:1054100080B485B000AF0346FB710B46BB711346E9
:105420007B713B4B9B79DBB29B0803F00303FB6072
:10543000374B9B79DBB203F00103FB72344B1B7AD1
:10544000DBB25B08DBB203F00703BB727A79BB7A8D
:105450009A422CD02E4B1B78DBB203F00203002BB8
:1054600002D1FB68012B12D1FB7A012B0FD1284B03
:105470005B78DBB2264A23F00103DBB2537000BF36
:10548000234B9B79DBB203F00103002BF8D1204BB7
:105490001B7ADBB223F02F03DAB27B795B00DBB23D
:1054A00003F00E03DBB21A491343DBB20B72184B45
:1054B0005B78DBB223F00103DAB2BB7903F00103BE
:1054C000DBB213491343DBB24B70114B1B78DBB2D9
:1054D00023F00303DAB20E49FB791343DBB20B70FE
:1054E000FB68012B04D0FB7903F00203002B08D0EA
:1054F00000BF074B9B79DBB203F00102BB799A42F4
:10550000F7D1002318461437BD465DF8047B704779
:105510000040064080B584B000AF78607B68002B07
:1055200002D11C4802F0F6FB0023FB737B685B781A
:1055300003F01F03DAB2FB7B1343FB73164AFB7BBA
:105540001371154B5B79DBB223F01F03DAB27B6872
:105550009B7803F01F03DBB20F491343DBB24B719F
:105560000D4B1B79DAB27B681B781343DBB20A4A16
:1055700043F04003DBB2137100BF074B9B79DBB2F2
:1055800003F04003002BF8D000BF00BF1037BD462A
:1055900080BD00BFACB500000040064080B584B0BF
:1055A00000AF78607B681B681846FFF73DFC034638
:1055B000FB737B681B791946194804F07CFD194B75
:1055C0005B78DBB223F03C03DAB2FB7B1B01DBB27E
:1055D00003F03003DBB21343DAB27B685B79114925
:1055E0001343DBB24B707B68063319460C4804F05A
:1055F00048FD7B685B79002B0DD0094B1B78DBB233
:105600005BB2002B07DA00BF064B9B79DBB203F0DD
:105610000203002BF8D000BF1037BD4680BD00BF8D
:10562000005006400040064080B582B000AF0346FF
:105630003960FB713B68002B02D1234802F06AFB02
:10564000224B5B78DBB2214A23F00203DBB25370BA
:105650001E4B1B78DBB203F03B03DBB21B4A63F04B
:105660007F03DBB2137000BF184B9B79DBB203F0F2
:105670001C03082BF8D1154B5B79DBB2134A23F0DE
:105680004003DBB2537100BF104B9B79DBB203F0D8
:105690002003002BF8D13868FFF73CFF0B4B5B79F8
:1056A000DBB20A4A43F04003DBB2537100BF074B41
:1056B0009B79DBB203F02003002BF8D000231846BF
:1056C0000837BD4680BD00BFC8B500000040064099
:1056D00080B582B000AF03463A60FB710B46BB71E8
:1056E0003B68002B02D1114802F014FBFB791846ED
:1056F000FFF758FEBB7939681846FFF795FF0C4B4A
:105700001B78DBB20A4A03F03F03DBB2137000BF21
:10571000074B9B79DBB29B0803F00303032BF7D104
:10572000002318460837BD4680BD00BFE4B5000021
:105730000040064080B584B000AF78600023FB6075
:1057400006E00B4A7B68934206D0FB680133FB609E
:10575000FB68002BF5D000E000BFFB68002B02D0F7
:10576000044802F0D7FAFB6818461037BD4680BDE2
:105770000010024010B6000080B582B000AF786023
:105780007868FFF7D7FF044B184604F0CFFC00BF42
:105790000837BD4680BD00BF01003C1080B483B017
:1057A00000AF0346FB7197F90730002B0BDBFB7949
:1057B00003F01F02074997F907305B09012000FA3F
:1057C00002F241F8232000BF0C37BD465DF8047B90
:1057D000704700BF00E100E080B584B000AF7860A2
:1057E0000023FB6006E00B4A7B68934206D0FB680F
:1057F0000133FB60FB68002BF5D000E000BFFB68C5
:10580000002B02D0044802F085FAFB6818461037D6
:10581000BD4680BD0080004058B6000080B584B011
:1058200000AFF860B9607A60BB680F2B02D94B48B3
:1058300002F070FA7B68002B02D1494802F06AFA44
:105840007B6803F01F03002B02D0464802F062FA87
:105850007B681A68F968BB6880335B010B441A6087
:105860007B689B8899B2FA68BB6880335B011344FC
:1058700004330A461A807B68DB8899B2FA68BB68F1
:1058800080335B01134406330A461A807B689A68AA
:10589000F968BB685B010B4403F5805308331A6059
:1058A0007B68DB681946FA68BB685B01134403F543
:1058B00080530C3319607B681A69F968BB685B0117
:1058C0000B4403F5805310331A607B689B8A99B2AE
:1058D000FA68BB685B01134403F5805314330A462E
:1058E0001A807B68DB8A99B2FA68BB685B01134453
:1058F00003F5805316330A461A807B689B69194664
:10590000FA68BB685B01134403F5805318331960D0
:10591000FA68BB685B01134403F580531C33002213
:105920001A807B689B8B99B2FA68BB685B01134451
:1059300003F580531C330A461A807B68DB8B99B2CF
:10594000FA68BB685B01134403F580531E330A46B3
:105950001A8000BF1037BD4680BD00BF8CB6000066
:10596000D0B60000ECB6000080B584B000AF78601F
:1059700039603B68002B02D11F4802F0CBF97868F0
:10598000FFF72AFF1D4B184604F0EAFB7B68002254
:10599000DA607B684FF0FF325A627B684FF0FF326B
:1059A000DA627B681B68FB60FB6823F05603FB60D0
:1059B0003B689B789B0003F004023B685B781B010B
:1059C00003F010031A433B681B789B0103F040036C
:1059D0001A433B68DB785B0003F002031A43FB6861
:1059E000134343F08003FB607B68FA681A6000BFD2
:1059F0001037BD4680BD00BF1CB70000010040103D
:105A000080B582B000AF78607B68002B02D10C4873
:105A100002F080F904220021786804F0C3FF7B685B
:105A200000229A707B6801225A707B6800221A70EB
:105A30007B680022DA7000BF0837BD4680BD00BF1A
:105A40003CB7000080B584B000AFF860B9607A6000
:105A50003B60BB680F2B02D90F4802F05BF97B68F3
:105A6000002B02D10D4802F055F93B6803F01F03EB
:105A7000002B02D00A4802F04DF9BB6880335B016D
:105A8000FA6813443A687968184600F047F800BF8E
:105A90001037BD4680BD00BF5CB70000A4B7000052
:105AA000C4B7000080B582B000AF78607B68002B7F
:105AB00002D1184802F02EF97B6803F01F03002B77
:105AC00002D0154802F026F97B6800221A607B6834
:105AD00000229A807B680022DA807B6800229A602C
